{
  "contractName": "Baseball",
  "abi": [
    {
      "inputs": [
        {
          "internalType": "address",
          "name": "tokenAddress",
          "type": "address"
        }
      ],
      "stateMutability": "nonpayable",
      "type": "constructor"
    },
    {
      "inputs": [],
      "name": "GAME_COUNT",
      "outputs": [
        {
          "internalType": "uint256",
          "name": "",
          "type": "uint256"
        }
      ],
      "stateMutability": "view",
      "type": "function"
    },
    {
      "inputs": [],
      "name": "gameState",
      "outputs": [
        {
          "internalType": "enum Baseball.GameState",
          "name": "",
          "type": "uint8"
        }
      ],
      "stateMutability": "view",
      "type": "function"
    },
    {
      "inputs": [],
      "name": "owner",
      "outputs": [
        {
          "internalType": "address",
          "name": "",
          "type": "address"
        }
      ],
      "stateMutability": "view",
      "type": "function"
    },
    {
      "inputs": [],
      "name": "progress",
      "outputs": [
        {
          "internalType": "uint256",
          "name": "",
          "type": "uint256"
        }
      ],
      "stateMutability": "view",
      "type": "function"
    },
    {
      "inputs": [],
      "name": "random",
      "outputs": [
        {
          "internalType": "uint256",
          "name": "",
          "type": "uint256"
        }
      ],
      "stateMutability": "view",
      "type": "function"
    },
    {
      "inputs": [],
      "name": "reword",
      "outputs": [
        {
          "internalType": "uint256",
          "name": "",
          "type": "uint256"
        }
      ],
      "stateMutability": "view",
      "type": "function"
    },
    {
      "inputs": [],
      "name": "ticket",
      "outputs": [
        {
          "internalType": "uint256",
          "name": "",
          "type": "uint256"
        }
      ],
      "stateMutability": "view",
      "type": "function"
    },
    {
      "inputs": [],
      "name": "token",
      "outputs": [
        {
          "internalType": "contract IERC20",
          "name": "",
          "type": "address"
        }
      ],
      "stateMutability": "view",
      "type": "function"
    },
    {
      "inputs": [
        {
          "internalType": "uint256",
          "name": "_value",
          "type": "uint256"
        }
      ],
      "name": "gameStart",
      "outputs": [],
      "stateMutability": "payable",
      "type": "function"
    },
    {
      "inputs": [],
      "name": "withdrawToOwner",
      "outputs": [],
      "stateMutability": "nonpayable",
      "type": "function"
    },
    {
      "inputs": [],
      "name": "getReword",
      "outputs": [
        {
          "internalType": "uint256",
          "name": "",
          "type": "uint256"
        }
      ],
      "stateMutability": "view",
      "type": "function"
    },
    {
      "inputs": [],
      "name": "getProgress",
      "outputs": [
        {
          "internalType": "uint256",
          "name": "",
          "type": "uint256"
        }
      ],
      "stateMutability": "view",
      "type": "function"
    },
    {
      "inputs": [],
      "name": "getPlaying",
      "outputs": [
        {
          "internalType": "uint256",
          "name": "",
          "type": "uint256"
        }
      ],
      "stateMutability": "view",
      "type": "function"
    },
    {
      "inputs": [],
      "name": "getRandom",
      "outputs": [
        {
          "internalType": "uint256",
          "name": "",
          "type": "uint256"
        }
      ],
      "stateMutability": "view",
      "type": "function"
    }
  ],
  "bytecode": "0x608060405268056bc75e2d631000006002553480156200001d575f80fd5b5060405162001378380380620013788339818101604052810190620000439190620001ac565b335f806101000a81548173ffffffffffffffffffffffffffffffffffffffff021916908373ffffffffffffffffffffffffffffffffffffffff1602179055505f60065f6101000a81548160ff02191690836001811115620000a957620000a8620001dc565b5b02179055508060015f6101000a81548173ffffffffffffffffffffffffffffffffffffffff021916908373ffffffffffffffffffffffffffffffffffffffff16021790555060646103844244436040516020016200010a9392919062000236565b604051602081830303815290604052805190602001205f1c6200012e9190620002a5565b6200013a919062000309565b6005819055505062000343565b5f80fd5b5f73ffffffffffffffffffffffffffffffffffffffff82169050919050565b5f62000176826200014b565b9050919050565b62000188816200016a565b811462000193575f80fd5b50565b5f81519050620001a6816200017d565b92915050565b5f60208284031215620001c457620001c362000147565b5b5f620001d38482850162000196565b91505092915050565b7f4e487b71000000000000000000000000000000000000000000000000000000005f52602160045260245ffd5b5f819050919050565b5f819050919050565b620002306200022a8262000209565b62000212565b82525050565b5f6200024382866200021b565b6020820191506200025582856200021b565b6020820191506200026782846200021b565b602082019150819050949350505050565b7f4e487b71000000000000000000000000000000000000000000000000000000005f52601260045260245ffd5b5f620002b18262000209565b9150620002be8362000209565b925082620002d157620002d062000278565b5b828206905092915050565b7f4e487b71000000000000000000000000000000000000000000000000000000005f52601160045260245ffd5b5f620003158262000209565b9150620003228362000209565b92508282019050808211156200033d576200033c620002dc565b5b92915050565b61102780620003515f395ff3fe6080604052600436106100dc575f3560e01c8063aacc5a171161007e578063c38599e011610058578063c38599e014610262578063d1f9c24d1461028c578063dfbee21f146102b6578063fc0c546a146102e0576100dc565b8063aacc5a17146101f2578063b8a5368a1461021c578063be6f0a4d14610238576100dc565b80636cc25db7116100ba5780636cc25db71461014a578063810ab154146101745780638da5cb5b1461019e578063939c4456146101c8576100dc565b80633cb40e16146100e0578063577bd336146100f65780635ec01e4d14610120575b5f80fd5b3480156100eb575f80fd5b506100f461030a565b005b348015610101575f80fd5b5061010a610524565b6040516101179190610a23565b60405180910390f35b34801561012b575f80fd5b5061013461052a565b6040516101419190610a23565b60405180910390f35b348015610155575f80fd5b5061015e610530565b60405161016b9190610a23565b60405180910390f35b34801561017f575f80fd5b50610188610536565b6040516101959190610a23565b60405180910390f35b3480156101a9575f80fd5b506101b2610581565b6040516101bf9190610a7b565b60405180910390f35b3480156101d3575f80fd5b506101dc6105a4565b6040516101e99190610a23565b60405180910390f35b3480156101fd575f80fd5b506102066105ad565b6040516102139190610a23565b60405180910390f35b61023660048036038101906102319190610ac2565b610644565b005b348015610243575f80fd5b5061024c6109c0565b6040516102599190610a23565b60405180910390f35b34801561026d575f80fd5b506102766109c6565b6040516102839190610a23565b60405180910390f35b348015610297575f80fd5b506102a06109cb565b6040516102ad9190610b60565b60405180910390f35b3480156102c1575f80fd5b506102ca6109dd565b6040516102d79190610a23565b60405180910390f35b3480156102eb575f80fd5b506102f46109e6565b6040516103019190610bd4565b60405180910390f35b5f8054906101000a900473ffffffffffffffffffffffffffffffffffffffff1673ffffffffffffffffffffffffffffffffffffffff163373ffffffffffffffffffffffffffffffffffffffff1614610397576040517f08c379a000000000000000000000000000000000000000000000000000000000815260040161038e90610c47565b60405180910390fd5b5f60018111156103aa576103a9610aed565b5b60065f9054906101000a900460ff1660018111156103cb576103ca610aed565b5b14806103da5750600a60035410155b610419576040517f08c379a000000000000000000000000000000000000000000000000000000000815260040161041090610caf565b60405180910390fd5b5f6004541161045d576040517f08c379a000000000000000000000000000000000000000000000000000000000815260040161045490610d17565b60405180910390fd5b60015f9054906101000a900473ffffffffffffffffffffffffffffffffffffffff1673ffffffffffffffffffffffffffffffffffffffff1663a9059cbb5f8054906101000a900473ffffffffffffffffffffffffffffffffffffffff166004546040518363ffffffff1660e01b81526004016104da929190610d35565b6020604051808303815f875af11580156104f6573d5f803e3d5ffd5b505050506040513d601f19601f8201168201806040525081019061051a9190610d91565b505f600481905550565b60035481565b60055481565b60025481565b5f80600181111561054a57610549610aed565b5b60065f9054906101000a900460ff16600181111561056b5761056a610aed565b5b14610577576001610579565b5f5b60ff16905090565b5f8054906101000a900473ffffffffffffffffffffffffffffffffffffffff1681565b5f600354905090565b5f805f9054906101000a900473ffffffffffffffffffffffffffffffffffffffff1673ffffffffffffffffffffffffffffffffffffffff163373ffffffffffffffffffffffffffffffffffffffff161461063c576040517f08c379a000000000000000000000000000000000000000000000000000000000815260040161063390610c47565b60405180910390fd5b600554905090565b600a60035410610689576040517f08c379a000000000000000000000000000000000000000000000000000000000815260040161068090610e06565b60405180910390fd5b5f600181111561069c5761069b610aed565b5b60065f9054906101000a900460ff1660018111156106bd576106bc610aed565b5b146106fd576040517f08c379a00000000000000000000000000000000000000000000000000000000081526004016106f490610e06565b60405180910390fd5b6002543414610741576040517f08c379a000000000000000000000000000000000000000000000000000000000815260040161073890610e6e565b60405180910390fd5b6064811015801561075357506103e881105b610792576040517f08c379a000000000000000000000000000000000000000000000000000000000815260040161078990610ed6565b60405180910390fd5b5f60015f9054906101000a900473ffffffffffffffffffffffffffffffffffffffff1673ffffffffffffffffffffffffffffffffffffffff166323b872dd33306002546040518463ffffffff1660e01b81526004016107f393929190610ef4565b6020604051808303815f875af115801561080f573d5f803e3d5ffd5b505050506040513d601f19601f820116820180604052508101906108339190610d91565b905080610875576040517f08c379a000000000000000000000000000000000000000000000000000000000815260040161086c90610f73565b60405180910390fd5b600160035f8282546108879190610fbe565b9250508190555060025460045f8282546108a19190610fbe565b9250508190555060055482036109865760015f9054906101000a900473ffffffffffffffffffffffffffffffffffffffff1673ffffffffffffffffffffffffffffffffffffffff1663a9059cbb336004546040518363ffffffff1660e01b815260040161090f929190610d35565b6020604051808303815f875af115801561092b573d5f803e3d5ffd5b505050506040513d601f19601f8201168201806040525081019061094f9190610d91565b505f600481905550600160065f6101000a81548160ff0219169083600181111561097c5761097b610aed565b5b02179055506109bc565b600a600354036109bb57600160065f6101000a81548160ff021916908360018111156109b5576109b4610aed565b5b02179055505b5b5050565b60045481565b600a81565b60065f9054906101000a900460ff1681565b5f600454905090565b60015f9054906101000a900473ffffffffffffffffffffffffffffffffffffffff1681565b5f819050919050565b610a1d81610a0b565b82525050565b5f602082019050610a365f830184610a14565b92915050565b5f73ffffffffffffffffffffffffffffffffffffffff82169050919050565b5f610a6582610a3c565b9050919050565b610a7581610a5b565b82525050565b5f602082019050610a8e5f830184610a6c565b92915050565b5f80fd5b610aa181610a0b565b8114610aab575f80fd5b50565b5f81359050610abc81610a98565b92915050565b5f60208284031215610ad757610ad6610a94565b5b5f610ae484828501610aae565b91505092915050565b7f4e487b71000000000000000000000000000000000000000000000000000000005f52602160045260245ffd5b60028110610b2b57610b2a610aed565b5b50565b5f819050610b3b82610b1a565b919050565b5f610b4a82610b2e565b9050919050565b610b5a81610b40565b82525050565b5f602082019050610b735f830184610b51565b92915050565b5f819050919050565b5f610b9c610b97610b9284610a3c565b610b79565b610a3c565b9050919050565b5f610bad82610b82565b9050919050565b5f610bbe82610ba3565b9050919050565b610bce81610bb4565b82525050565b5f602082019050610be75f830184610bc5565b92915050565b5f82825260208201905092915050565b7f6f6e6c79206f776e6572000000000000000000000000000000000000000000005f82015250565b5f610c31600a83610bed565b9150610c3c82610bfd565b602082019050919050565b5f6020820190508181035f830152610c5e81610c25565b9050919050565b7f47616d65206e6f74206f766572210000000000000000000000000000000000005f82015250565b5f610c99600e83610bed565b9150610ca482610c65565b602082019050919050565b5f6020820190508181035f830152610cc681610c8d565b9050919050565b7f4e4f207265776f726400000000000000000000000000000000000000000000005f82015250565b5f610d01600983610bed565b9150610d0c82610ccd565b602082019050919050565b5f6020820190508181035f830152610d2e81610cf5565b9050919050565b5f604082019050610d485f830185610a6c565b610d556020830184610a14565b9392505050565b5f8115159050919050565b610d7081610d5c565b8114610d7a575f80fd5b50565b5f81519050610d8b81610d67565b92915050565b5f60208284031215610da657610da5610a94565b5b5f610db384828501610d7d565b91505092915050565b7f47616d65206973206f76657200000000000000000000000000000000000000005f82015250565b5f610df0600c83610bed565b9150610dfb82610dbc565b602082019050919050565b5f6020820190508181035f830152610e1d81610de4565b9050919050565b7f7469636b657420616d6f756e74206572726f72000000000000000000000000005f82015250565b5f610e58601383610bed565b9150610e6382610e24565b602082019050919050565b5f6020820190508181035f830152610e8581610e4c565b9050919050565b7f205f76616c7565206572726f7220283130307e393939290000000000000000005f82015250565b5f610ec0601783610bed565b9150610ecb82610e8c565b602082019050919050565b5f6020820190508181035f830152610eed81610eb4565b9050919050565b5f606082019050610f075f830186610a6c565b610f146020830185610a6c565b610f216040830184610a14565b949350505050565b7f5469636b6574205061796d656e74206661696c656400000000000000000000005f82015250565b5f610f5d601583610bed565b9150610f6882610f29565b602082019050919050565b5f6020820190508181035f830152610f8a81610f51565b9050919050565b7f4e487b71000000000000000000000000000000000000000000000000000000005f52601160045260245ffd5b5f610fc882610a0b565b9150610fd383610a0b565b9250828201905080821115610feb57610fea610f91565b5b9291505056fea2646970667358221220d08b32e14999df42e5ff2f3beb3e55a42c059d66d252cdf029fce0bc958632e064736f6c63430008140033",
  "immutableReferences": {},
  "source": "// SPDX-License-Identifier: MIT\n\npragma solidity ^0.8.20;\n\nimport \"@openzeppelin/contracts/token/ERC20/IERC20.sol\";\n\ncontract Baseball {\n    address public owner;\n    IERC20 public token;\n    uint256 public constant GAME_COUNT = 10;\n    uint256 public ticket = 100 * 10 ** 18; // 100MTK\n    uint256 public progress;\n    uint256 public reword;\n    uint256 public random;\n\n    enum GameState {\n        playing,\n        gameOver\n    }\n\n    GameState public gameState;\n    constructor(address tokenAddress) {\n        owner = msg.sender;\n        gameState = GameState.playing;\n        token = IERC20(tokenAddress);\n        random =\n            (uint256(\n                keccak256(\n                    abi.encodePacked(\n                        block.timestamp,\n                        block.prevrandao,\n                        block.number\n                    )\n                )\n            ) % 900) +\n            100;\n    }\n    function gameStart(uint256 _value) public payable {\n        require((progress < GAME_COUNT), \"Game is over\");\n        require(gameState == GameState.playing, \"Game is over\");\n        require((msg.value == ticket), \"ticket amount error\");\n        require((_value >= 100) && (_value < 1000), \" _value error (100~999)\");\n        //    CA => MTK   ,  \n        bool success = token.transferFrom(msg.sender, address(this), ticket);\n        require(success, \"Ticket Payment failed\");\n        //   ?\n        progress += 1;\n        reword += ticket;\n\n        if (_value == random) {\n            token.transfer(msg.sender, reword);\n            reword = 0;\n            gameState = GameState.gameOver;\n        } else if (progress == GAME_COUNT) {\n            gameState = GameState.gameOver;\n        }\n    }\n\n    function withdrawToOwner() public {\n        require(msg.sender == owner, \"only owner\");\n        require(\n            gameState == GameState.playing || progress >= GAME_COUNT,\n            \"Game not over!\"\n        );\n        require(reword > 0, \"NO reword\");\n\n        token.transfer(owner, reword);\n        reword = 0;\n    }\n\n    function getReword() public view returns (uint256) {\n        return reword;\n    }\n\n    function getProgress() public view returns (uint256) {\n        return progress;\n    }\n\n    function getPlaying() public view returns (uint256) {\n        return gameState == GameState.playing ? 0 : 1;\n    }\n\n    function getRandom() public view returns (uint256) {\n        require(msg.sender == owner, \"only owner\");\n        return random;\n    }\n}\n",
  "sourcePath": "/Users/eunsbook/Documents/bolckchain/250508/mytoken-ui/contracts/baseball.sol",
  "compiler": {
    "name": "solc",
    "version": "0.8.20+commit.a1b79de6.Emscripten.clang"
  },
  "schemaVersion": "3.4.16",
  "updatedAt": "2025-05-08T02:43:34.583Z",
  "devdoc": {
    "kind": "dev",
    "methods": {},
    "version": 1
  },
  "userdoc": {
    "kind": "user",
    "methods": {},
    "version": 1
  }
}